:1000000000200010C1000000392300003B23000045
:1000100000000000000000000000000000000000E0
:100020000000000000000000000000003D23000070
:1000300000000000000000003F23000041230000FA
:10004000432300004323000000000000432300007E
:10005000432300004323000000000000432300006E
:1000600043230000432300004323000043230000F8
:1000700043230000432300004323000043230000E8
:1000800043230000432300004323000043230000D8
:10009000432300004323000043230000000000002E
:1000A00043230000432300004323000043230000B8
:1000B00043230000432300004323000043230000A8
:1000C0000749084A084B9B1A05DD002408591051BE
:1000D00004349C42FADB054880470548004700008D
:1000E000987D0000C000001044010010F5000000E1
:1000F000591800002B4B802299582B4810B501430A
:1001000099502A4A1821906BC02488439063506B01
:1001100082B0884350632649E02252008858A043A9
:1001200088508E22920099582020814399500023B4
:100130000193019BC72B06D8C046019B0133019355
:10014000019BC72BF8D9174800228E2302629B001F
:10015000C1588024A143C15001230364012142649A
:100160004364436C0F4A1942FBD0242393608E23CF
:100170009B00D15880208143D150101C0121C368BD
:10018000084A1942FBD00323136700235367012356
:1001900053670121536F1942FCD0024B02229A6728
:1001A00002B010BD00800440800004000040044004
:1001B00000C0004010B5064C2378002B07D1054B3A
:1001C000002B02D0044800E000BF0123237010BDC3
:1001D0004401001000000000947D000008B5084BA9
:1001E000002B03D00748084900E000BF0748036818
:1001F000002B03D0064B002B00D0984708BDC0460B
:1002000000000000947D000048010010440100102F
:1002100000000000014B03607047C046A07700005B
:1002200010B5034B041C036002F090FC201C10BDB1
:10023000A0770000074B10B51A1C036018324C332E
:10024000041C02644364403002F014F8024B201C8A
:10025000236010BD98790000A077000008B4024B1D
:100260009C46443808BC60473502000008B4024B85
:100270009C46403808BC604735020000094B10B569
:100280001A1C183203604C33041C0264436440306F
:1002900001F0F0FF044B201C236002F057FC201CEF
:1002A00010BDC04698790000A077000008B4024B4A
:1002B0009C46443808BC60477D02000008B4024BED
:1002C0009C46403808BC60477D02000000000000EA
:1002D000F0B55F4656464D464446F0B4AE4889B048
:1002E000142101F0E9FCAD48142101F0E5FC1421D2
:1002F000AB4801F0E1FC0021AA4A03910691AA490A
:1003000093468A46A94AAA49002391468846A949A4
:100310004A6949681268114200D112E1012B01D1EA
:1003200000F0E9FC022B00D1CFE3032B49D0042BD2
:1003300001D100F0F7FD052B01D100F03FFF062BA6
:1003400001D101F06CF8072B00D1E9E1082B00D1B5
:10035000A2E1092B01D101F068F90A2B00D18BE24F
:100360000B2BD4D1944C96218D48090101F0CEFC81
:100370005946CB684A6851461A604A68CB68FE21E4
:100380001A608548890501F071FC4946CB684A68C6
:1003900041461A604A68CB68FE211A6089057F4889
:1003A00001F064FC854801F009FD8548211C4030BE
:1003B00001F0AEFFD7E782488249403001F0A8FF44
:1003C0000697814801F0D8FA061C804801F0D4FA5B
:1003D00007907F4801F0D0FA04900499301C03F094
:1003E00015F905F08FF85B4B594A03F04BFB05F00C
:1003F000DBF8071C039805F085F8041C0D1C381C5D
:10040000069902F091FC05F07DF8534A534B04F035
:10041000BFFA021C0B1C201C291C03F033FB05F047
:10042000C3F80390381C05F06DF84D4A4D4B009011
:10043000019104F0ADFA041C03980D1C05F062F85C
:10044000494A4A4B04F0A4FA021C0B1C201C291C2C
:1004500003F018FB041C0D1C381C069903F0D6F899
:1004600005F050F8424A434B03F028FE05F09CF893
:100470004000400805F046F83F4A404B04F088FA37
:10048000021C0B1C201C291C03F0FCFA05F08CF844
:100490003B4A3C4B041C0098019902F0DFFB00280A
:1004A00000D06FE200980199374A384B02F0C2FB46
:1004B0005A46D368516852461960516813691960E9
:1004C000002800D105E2FE213348890501F0CEFB6A
:1004D0004A46D36851684246196051681369201C26
:1004E0001960FE21890502F01FFC011C2B4801F058
:1004F000BDFB301C05F006F8254A264B02F09AFB9E
:10050000002800D157E7FC210798890502F0CCFBB1
:10051000002800D14FE7049804F0F4FF1C4A1D4B5B
:1005200002F088FB002800D145E72A48069701F031
:1005300045FC204904234A6949681268114200D0E9
:10054000ECE61748244901F0E1FB0123DFE6C04651
:10055000FCA9F1D24D62703F7B14AE47E17A843F33
:10056000EC51B81E85EBE93FFCA9F1D24D62603F2A
:100570007B14AE47E17A943FBA490C022B87963F31
:100580009A9999999999A93F9A9999999999A9BFED
:10059000CDCCCCCCCCCCDC3F640200106C02001083
:1005A00098010010000200101802001074020010E0
:1005B00030020010480200102078000000002041A6
:1005C000A0010010C0770000FC0100109401001091
:1005D00060020010CDCC4C3DFC080000201C291C02
:1005E000D24BD14A02F03AFB002800D1E9E1FC21CC
:1005F000301C890502F06CFB002800D1E1E1381CB9
:1006000004F080FFC94BC84A0090019102F026FB1C
:10061000002800D0F6E1201C291CC44BC24A02F07D
:1006200009FB002811D000980199C04BBE4A02F086
:1006300015FB002800D0EEE1201C291CBB4BBA4A58
:1006400002F00CFB002800D1D2E1FC21301C89050E
:1006500002F02AFB002809D0381C04F053FFB34BEA
:10066000B14A02F0FBFA002800D0F2E1FC21301C74
:10067000890502F02DFB002809D0381C04F042FF48
:10068000AA4BA94A02F0D6FA002800D0FFE1B048F0
:10069000B049403001F03CFEAF4801F06DF9041C58
:1006A000AE4801F069F9061CAD4801F065F9071C78
:1006B000201C04F027FF9D4B9B4A041C0D1C02F0DC
:1006C000B9FA00288AD0FC21301C890502F0ECFA26
:1006D000002800D182E7381C04F014FF934B924AA3
:1006E00002F0A8FA002800D178E79E4801F066FBE6
:1006F00009230CE6301C04F005FF8D4A8D4B02F0F7
:1007000099FA002855D1381C04F0FCFE884A894B20
:1007100002F090FA00284CD19348944901F0F8FD7A
:100720008D4801F029F9041C8C4801F025F9061CBC
:100730008B4801F021F95946CB684A6851461A6046
:100740004A680B69071C1A6089488A4901F08EFAC9
:100750004946CB684A6841461A604A680B69864830
:100760001A60864901F082FA201C04F0CBFE724A1E
:10077000724B041C0D1C02F071FA002811D1301CC0
:1007800004F0C0FE6C4A6D4B02F068FA002808D1F4
:10079000381C04F0B7FE684A684B02F05FFA002884
:1007A000BAD0201C291C624A624B02F043FA00288E
:1007B000A0D00823ABE5FC21301C890502F088FAA3
:1007C000002871D0381C04F09DFE584B564A00900A
:1007D000019102F043FA002801D000F0FDFE201C38
:1007E000291C524B504A02F025FA002813D00098D9
:1007F00001994E4B4C4A02F031FA002801D000F02A
:10080000CCFE201C291C494B474A02F027FA00283D
:1008100001D100F0C7FCFC21301C890502F044FA2C
:1008200000280AD0381C04F06DFE404B3E4A02F00E
:1008300015FA002801D000F0D9FEFC21301C8905F2
:1008400002F046FA00280AD0381C04F05BFE374B51
:10085000354A02F0EFF9002801D000F07FFE484849
:1008600001F08AF804F04EFE354A364B02F0F6F9F4
:10087000002801D000F04BFE374801F07DF8041C41
:10088000364801F079F8061C354801F075F8071C68
:10089000201C04F037FE254B234A041C0D1C02F0DB
:1008A000DDF9002800D086E7201C291C1F4B1E4ABA
:1008B00002F0C0F90028A4D0FC21301C890502F008
:1008C00007FA00289DD0381C04F01CFE009001910E
:1008D0008DE7201C04F016FE041C0D1C221C2B1C92
:1008E00019481A4904F0E4FA04F05EFE011C20489D
:1008F00001F0BCF94A46D368516842461960516814
:100900001369201C1960104A104B291C03F0BAF817
:1009100004F04AFE011C184801F0A8F900220392D5
:10092000E7E5C046C046C046CDCCCCCCCCCCDC3F05
:100930009A9999999999D93F333333333333E33FB4
:10094000CDCCCCCCCCCCEC3F9A9999999999E93FF4
:10095000A0010010FC770000FC01001094010010C1
:1009600060020010CDCC4C3DE0010010F07700009B
:1009700064020010CDCC4C3E6C020010CDCC4C3F3C
:10098000780100105A46D368516852461960516880
:100990001369FE2019608005211C02F037FE011C3E
:1009A000D94801F063F94A46D36851684246196054
:1009B00051681369D5481960FE21890501F056F97F
:1009C00097E5201C291CCF4BCD4A02F033F90028B3
:1009D00000D131E6FC21301C890502F079F90028AC
:1009E00000D129E6381C04F08DFD009001911AE633
:1009F000201C291CC34BC24A02F030F9002800D148
:100A000045E633E6C24801F0D9F99621C14809010B
:100A100001F07CF93BE69621BE48090101F076F928
:100A20005946CB684A6851461A604A680B69B6480D
:100A30001A60B94901F01AF94946CB684A6841463B
:100A40001A604A680B69B1481A60B44901F00EF99E
:100A50001DE69621AF48090101F058F95946CB68C7
:100A60004A6851461A604A680B69A7481A60AC493F
:100A700001F0FCF84946CB684A6841461A604A686A
:100A80000B69A2481A60A64901F0F0F8FFE596212B
:100A9000A048090101F03AF95946CB684A68514625
:100AA0001A604A680B6998481A609C4901F0DEF8A0
:100AB0004946CB684A6841461A604A680B699348C0
:100AC0001A60954901F0D2F8E1E5964E371C50E0E6
:100AD000FC21301C890502F0FBF8002860D000984A
:100AE00004F010FD874B864A0490059102F0B6F899
:100AF000002800D09CE0201C291C824B804A02F078
:100B000099F8002810D0049805997E4B7C4A02F091
:100B1000A5F8002800D094E0201C291C794B784AC5
:100B200002F09CF8002850D0FC21301C890502F00E
:100B3000BBF8002809D0009804F0E4FC714B704A1F
:100B400002F08CF8002800D099E0FC21301C8905C7
:100B500002F0BEF8002809D0009804F0D3FC694BDD
:100B6000674A02F067F8002800D0A6E0013F002F96
:100B700036D06D4800F000FF041C6C4800F0FCFE0D
:100B8000061C6B4800F0F8FE0090201C04F0BAFC34
:100B90005C4B5B4A041C0D1C02F060F8002897D1E6
:100BA000201C291C574B564A02F044F80028B3D0A9
:100BB000FC21301C890502F08BF80028ACD000988D
:100BC00004F0A0FC049005919DE7201C291C4D4BCE
:100BD0004B4A02F043F80028B7D1013F002FC8D19B
:100BE00096214C48090101F091F85A46D3685168A2
:100BF000524619605168D36843481960464901F06C
:100C000035F84A46D3685168424619605168D3683E
:100C10003E481960404901F029F8464801F0CEF8F5
:100C200045484649403001F073FB0323FFF76FFB53
:100C3000374801F0C3F896213648090101F066F8FB
:100C400094E796213348090101F060F85A46D368C9
:100C5000516852461960516813692B4819602E4932
:100C600001F004F84A46D368516842461960516859
:100C70001369264819602A4900F0F8FF76E79621A3
:100C80002448090101F042F85A46D3685168524697
:100C90001960516813691C481960204900F0E6FF8B
:100CA0004A46D3685168424619605168136917482B
:100CB00019601A4900F0DAFF58E796211548090132
:100CC00001F024F85A46D3685168524619605168B9
:100CD00013690D481960124900F0C8FF4A46D368ED
:100CE00051684246196051681369084819600A49F9
:100CF00000F0BCFF3AE7039E4AE0C046C046C0464B
:100D0000CDCCCCCCCCCCDC3F640200106C0200100B
:100D1000CDCCCC3D98010010CDCC4C3F9A99193FD9
:100D20003333333F6D070000FC01001094010010C5
:100D30006002001000002040A0010010B477000005
:100D4000FE21DF48890500F091FF4A46D3685168CB
:100D50004246196051681369201C1960FE218905FB
:100D600001F0E2FF011CD74800F080FFD64800F0F8
:100D700003FE04F0C7FBBD4BBB4A01F06FFF002828
:100D800000D0CAE0D148D249403001F0C1FA0697FC
:100D9000D04800F0F1FD041CCF4800F0EDFDCF4835
:100DA00000F0EAFD011C201C02F030FC04F0AAFB5C
:100DB000AF4AB04B02F066FE04F0F6FB071C301C95
:100DC00004F0A0FB041C0D1C381C069901F0ACFFBC
:100DD00004F098FBA84AA94B03F0DAFD021C0B1C97
:100DE000201C291C02F04EFE04F0DEFB061C381C01
:100DF00004F088FBA24AA34B0090019103F0C8FDC8
:100E0000041C301C0D1C04F07DFB9F4A9F4B03F01B
:100E1000BFFD021C0B1C201C291C02F033FE041C0D
:100E20000D1C381C069902F0F1FB04F06BFB984A8C
:100E3000984B03F043F904F0B7FB4000400804F07E
:100E400061FB954A954B03F0A3FD021C0B1C201C73
:100E5000291C02F017FE04F0A7FB914A914B041CD9
:100E60000098019901F0FAFE002837D10098019905
:100E70008D4A8E4B01F0DEFE5A46D36851685246C9
:100E80001960516813691960002800D058E7201CC8
:100E900004F038FB041C0D1C221C2B1C84488549C3
:100EA00004F006F804F080FB011C854800F0DEFE2B
:100EB0004A46D36851684246196051681369201C3C
:100EC00019607B4A7B4B291C02F0DCFD04F06CFBB3
:100ED000011C7C4800F0CAFE002647E75A46D3684A
:100EE00051685246196051681369FE2019608005E7
:100EF000211C02F08BFB011C714800F0B7FE4A4632
:100F0000D368516842461960516813696D48196089
:100F1000FE21890500F0AAFE28E703960697022322
:100F2000FFF7F5F96E4E371C55E0FC21301C8905A2
:100F300001F0CEFE002865D0009804F0E3FA5E4A86
:100F40005E4B0490059101F089FE002800D081E0FD
:100F5000201C291C584A594B01F06CFE002810D067
:100F600004980599544A554B01F078FE002800D0AA
:100F7000BEE0201C291C504A504B01F06FFE002897
:100F800055D0FC21301C890501F08EFE002809D0C7
:100F9000009804F0B7FA484A484B01F05FFE002879
:100FA00000D0C3E0FC21301C890501F091FE00282F
:100FB00009D0009804F0A6FA3F4A404B01F03AFEEF
:100FC000002800D0D0E0414846494030013F01F0C0
:100FD0009FF9002F3BD03F4800F0CEFC041C3E4858
:100FE00000F0CAFC061C3D4800F0C6FC0090201C26
:100FF00004F088FA304A314B041C0D1C01F02EFE1F
:10100000002892D1201C291C2B4A2C4B01F012FEE7
:101010000028AED0FC21301C890501F059FE0028C3
:10102000A7D0009804F06EFA0490059198E7201C70
:10103000291C214A214B01F011FE0028B2D123487E
:1010400028494030013F01F063F9002FC3D1052347
:10105000FFF75DF9244800F0B1FEC8212348C9001C
:1010600000F054FEAFE7C046333333333333E33F4E
:10107000FCA9F1D24D62703F7B14AE47E17A843F08
:10108000EC51B81E85EBE93FFCA9F1D24D62603FFF
:101090007B14AE47E17A943FBA490C022B87963F06
:1010A0009A9999999999A93F9A9999999999A9BFC2
:1010B0009A9999999999E93FCDCCCCCCCCCCDC3F8D
:1010C000640200106C020010F8010010A001001072
:1010D000A8770000FC0100109401001060020010CD
:1010E000E9030000CC770000CDCCCC3D9801001086
:1010F000C821E148C90000F009FE5946CB684A689A
:1011000051461A604A680B69DC481A60DC4900F0F5
:10111000ADFD4946CB684A6841461A604A680B698A
:10112000D8481A60D84900F0A1FD4CE7C821D24840
:10113000C90000F0EBFD5946CB684A6851461A6079
:101140004A680B69CD481A60D04900F08FFD4946C6
:10115000CB684A6841461A604A680B69C9481A60F8
:10116000CA4900F083FD2EE7C821C348C90000F03A
:10117000CDFD5946CB684A6851461A604A680B69EA
:10118000BE481A60C04900F071FD4946CB684A6804
:1011900041461A604A680B69BA481A60B84900F0BB
:1011A00065FD10E7201C291CA04B9F4A01F056FD4D
:1011B000002801D1FFF753FBFFF73FFB039F46E0F9
:1011C000FE21AE48890500F051FD4946CB684A68CA
:1011D00041461A604A680B69FE2189051A60201C85
:1011E00001F0A2FD011CA74800F040FD039804F0A7
:1011F00089F98E4B8C4A01F01DFD002821D0FC217D
:101200000798890501F050FD00281AD0049804F0D1
:1012100079F9864B844A01F00DFD002811D09C48D5
:1012200000F0CCFDFC210398890501F03DFD00286C
:1012300007D0FC210498890501F036FD002800D074
:10124000CCE094489449403001F062F80696934807
:1012500000F092FB0390924800F08EFB07909148BB
:1012600000F08AFB04900499039802F0CFF904F08F
:1012700049F96F4A6F4B02F005FC04F095F9061C22
:10128000381C04F03FF9041C0D1C301C069901F0B9
:101290004BFD04F037F9684A684B03F079FB021CF8
:1012A0000B1C201C291C02F0EDFB04F07DF9071C2F
:1012B000301C04F027F9624A624B0090019103F060
:1012C00067FB041C381C0D1C04F01CF95E4A5F4BC4
:1012D00003F05EFB021C0B1C201C291C02F0D2FB3D
:1012E000041C0D1C301C069902F090F904F00AF958
:1012F000574A584B02F0E2FE04F056F9400040080D
:1013000004F000F9544A554B03F042FB021C0B1C3D
:10131000201C291C02F0B6FB04F046F9504A514B40
:10132000041C0098019901F099FC002837D100981D
:1013300001994D4A4D4B01F07DFC5946CB684A68F6
:1013400051461A604A680B691A60002800D037E7D6
:10135000201C04F0D7F8041C0D1C221C2B1C444834
:10136000444903F0A5FD04F01FF9011C434800F0B7
:101370007DFC4946CB684A6841461A604A680B6959
:10138000201C1A60291C3A4A3A4B02F07BFB04F0FD
:101390000BF9011C3B4800F069FC002726E7594681
:1013A000CB684A6851461A604A680B69FE201A6089
:1013B000211C800502F02AF9011C304800F056FC7F
:1013C0004946CB684A6841461A604A680B69FE2163
:1013D0001A602C48890500F049FC07E75946CB689C
:1013E0004A6851461A604A680B6924481A602649BF
:1013F000039700F03BFC4946CB684A6841461A60B7
:101400004A680B691F481A601F4900F02FFCFC2036
:10141000800500F0D3FC06960623FEF778FF1D4CEE
:10142000403445E0C046C046CDCCCCCCCCCCDC3F33
:10143000FCA9F1D24D62703F7B14AE47E17A843F44
:10144000EC51B81E85EBE93FFCA9F1D24D62603F3B
:101450007B14AE47E17A943FBA490C022B87963F42
:101460009A9999999999A93F9A9999999999A9BFFE
:101470009A9999999999E93F98010010640200108E
:10148000CDCC4C3F6C0200109A99193F3333333F57
:10149000CDCC4C3DA0010010D8770000FC0100101D
:1014A0009401001060020010201C694900F030FF18
:1014B000684800F061FA684800F05EFA674800F09A
:1014C0005BFA5946CB684A6851461A604A680B690C
:1014D00063481A60634900F0C9FB4946CB684A6813
:1014E00041461A604A680B695F481A605D4900F01E
:1014F000BDFB5E4800F040FA04F004F8534B524A3A
:1015000001F0ACFB0028CFD00723FEF700FF9621A7
:101510005748090100F0FAFB5946CB684A68514622
:101520001A604A68CB68FE211A604D48890500F0B0
:101530009DFB4946CB684A6841461A604A68CB68B9
:10154000FE211A604848890500F090FB49484A4945
:10155000403000F0DDFE0B23FEF7D9FE9621444813
:10156000090100F0D3FB5946CB684A6851461A601E
:101570004A680B693A481A603A4900F077FB4946D5
:10158000CB684A6841461A604A680B6936481A6057
:101590003A4900F06BFBFFF762F9962134480901E4
:1015A00000F0B4FB5946CB684A6851461A604A6855
:1015B0000B692B481A60314900F058FB4946CB684B
:1015C0004A6841461A604A680B6927481A602549EB
:1015D00000F04CFBFFF743F9294800F0EFFB9621A0
:1015E0002348090100F092FBFFF739F996212048C2
:1015F000090100F08BFB5946CB684A6851461A60D6
:101600004A680B6916481A601E4900F02FFB4946CC
:10161000CB684A6841461A604A680B6912481A60EA
:10162000184900F023FBFFF71AF91749104800F09A
:101630006DFB164800F0C2FB0E481549403000F023
:1016400067FE0A23FEF763FE666666666666E63F29
:10165000E4770000FC01001094010010600200100B
:10166000640200103333333F6C0200107801001025
:1016700098010010A001001014780000CDCC4C3F60
:10168000CDCCCC3D9A99193F3A070000CDCC4C3EC9
:1016900008780000C046C0465048962138B5490039
:1016A000002402228225048044608460C4600461B6
:1016B0004461ED0000F038FB4948291C00220480F9
:1016C00044608460C4600461446100F02DFB291C07
:1016D0004448454D00F0FAF84448291C0022048093
:1016E00044608460C4600461446100F01DFB291CF7
:1016F0003F48882500F0EAF86D013E48291C002289
:10170000048044608460C4600461446100F00CFBA8
:10171000291C3948394D00F0D9F83948291C0022D4
:10172000048044608460C4600461446100F0FCFA99
:10173000291C3448344D00F0C9F834480022291CD3
:10174000048044608460C4600461446100F0ECFA89
:10175000291C2F4800F0BAF82E482F490480446015
:101760008460C4600461446100F0F0FA2B482C49A5
:10177000048044608460C4600461446100F0E6FA5F
:101780002848294900F064F92848C821C900048084
:1017900044608460C4600461446100F0D7FA244866
:1017A0004421048044608460C4600461446100F0AA
:1017B000CDFA2048204900F04BF92048204900F09C
:1017C00047F9204C0023201C1F49204A00F0BAFC96
:1017D000201C1F491F4A01F0BFF938BD4802001004
:1017E000A4020010FC010010040D0000BC02001057
:1017F00094010010600100106002001074130000DA
:101800008C02001078010010701400007C010010A0
:10181000F801001000020010541B00001802001014
:10182000581A0000640200105C19000074020010D5
:10183000300200106C020010480E000098010010E9
:1018400064170000A00100103C070000781200009F
:1018500035020000C00000100748084A08B5121AF7
:10186000002104F00FFB00E000BF04F06DFAFEF76A
:101870002FFD03F059FFC04644010010280400105A
:1018800008B50123022802DD00F0EAFB031C181C46
:1018900008BDC04608B5EFF30583002B00D000BE9D
:1018A00004F0C8FA08BDC04608B5EFF30583002B65
:1018B00000D000BE04F0C8FA08BDC04608B501203B
:1018C00003F032FF08B5FFF7F9FFC046F8B54F4601
:1018D0004646C0B4041C0D1C081C214900F04AFAFD
:1018E000204B802220709C584021214399501E4F4C
:1018F000E02149007C580126A446FF242040894667
:101900000D30311C81406046884349467850A02004
:1019100080210006890147582D12AE403D1CB54379
:1019200045508E21890058581025A8435850985882
:1019300080214904014399500C4B0D49186801F06E
:1019400013F9802201380440D2050A4914430C607F
:101950000B681342FCD10CBC90469946F8BDC046BA
:101960002C7800000080044000C00040C800001037
:1019700020A1070000C001403349037830B51F257E
:101980001D408B6801221B0B1B038B608B68AA40D8
:1019900013438B60151C84238A681B06134385B090
:1019A0008B600B69284A0193019B002BF9DA93683D
:1019B0005B005B0893600198936800041B0B1B039A
:1019C00093609368000D2B439360916884231B06FA
:1019D0000B439360111C0B691B4A0293029B002B63
:1019E000F9DA93685B005B089360029C93682404B7
:1019F0001B0B1B0393609368240D1D439560916836
:101A000084231B060B43936013690F490393039BC5
:101A1000002BF9DA8B685B005B088B60039B1B046F
:101A20001B0DA04202D8221C041C101C984200D995
:101A3000181CA04200D2201C01F0D4FF034901F081
:101A4000BBFC05B030BDC04600C001400108803974
:101A5000F0B55F46444656464D46F0B4754C85B0E9
:101A6000039121788346002301200A1C1A41012595
:101A7000104200D1C4E00133042BF6D16E48012599
:101A8000022700F04BF96D4200267F422178019633
:101A90000096AA460297A946B8462B1C00222E1C87
:101AA0001143664A58460CC0654B21708021585836
:101AB000802252001043585059680A435A60012E40
:101AC00000D192E000DC81E0022E00D172E0032E12
:101AD0000AD15C4B5C4A196A0A401A620398196A77
:101AE000021212040A431A62544C584A2368F60040
:101AF0001343236062680C23134363606268544B92
:101B00003619134063606168524B8B46186852491E
:101B100001F02AF87F23013803405A465B01134342
:101B200063600098A023DB00F05001994B4BC1206B
:101B3000F1504346029EDA0012198000C0230121B1
:101B400016509B0049424E46D150F200121956469B
:101B50001650D150636804229343BF0063603F195D
:101B60008024A40035493E4B3859AD006D1880469D
:101B700028593B5101F036FF061C404601F032FF68
:101B8000011C301C01F034FA364901F015FC01F05B
:101B9000B3F82851385901F025FF002101F00CFC61
:101BA00001F0AAF8285105B03CBC90469946A246DF
:101BB000AB46F0BD234B2C4A196A0A401A620398BF
:101BC000196A021212020A431A628DE7002E00D02F
:101BD0008AE71C4BDA691202120ADA610398D969A2
:101BE000021212060A43DA617EE7164BFF211A6AD7
:101BF0008A431A6203981A6A01120A431A6273E747
:101C000058002E1C8046864001208146C144009623
:101C10004E462A1C8020B5404001019545460543AB
:101C200006439A400295B246D2B247464D461E1C24
:101C300036E7C046D4020010BC78000000400050D7
:101C40000080044000C00040FFFF00FF01000600CC
:101C50001FF0FFFFC800001040420F000405000005
:101C6000204E000000409C46FF00FFFF70B5061CA0
:101C70000C1C081C002101F017F800281AD1FE21C5
:101C8000201C890501F024F8002801D0FE24A405B9
:101C9000356876687600331C80339B00585901F014
:101CA000A1FE211C01F088FB01F026F88136B60068
:101CB000705170BD0024EBE7F0B524C8FA26B600D9
:101CC0004E43EB008024ED00D318A40004351959CD
:101CD0005519474680B428591E51884601F082FEA6
:101CE000071C404601F07EFE011C381C01F080F903
:101CF000071C301C01F01AFE011C381C01F05CFBB3
:101D000000F0FAFF285104BC9046F0BD4268036819
:101D100081208000D2001218D15070470FB40120EA
:101D200008B503F001FDC04670B50D1C041C161C5F
:101D300000F02AFB013507D0201C002100F044FBF5
:101D4000201C311C00F03AFB70BDC04638B50D1C9C
:101D5000041C00F019FB01350AD023696268201CBD
:101D600001211A6000F030FB201C002100F026FB4E
:101D700038BDC046021C08B5531C03D10BE09A4283
:101D80000AD00C3100200B5E581CF8D10448FFF734
:101D9000C5FF0120404208BD4868431CFBD1F5E760
:101DA000F878000038B5051C00F004FD041C00F0B4
:101DB00001FD031BAB42FAD338BDC04608B5044948
:101DC00001F0FAFA01F092FDFFF7ECFF08BDC04602
:101DD0000024744908B5FA239B005843FFF7E2FF3B
:101DE00008BDC046036870B51B6900210122041CB0
:101DF0009847051C431C0DD0236800211B69022253
:101E0000201C98472368061C1B69201C291C0022E3
:101E10009847301C70BDC046094B10B508330360AD
:101E2000084B00215A1CFF3202E00433934206D0D3
:101E30001C688442F9D1196004339342F8D110BD73
:101E400050790000D80200100C4B10B50833036025
:101E50000B4B041C5A1CFF32002102E00433934256
:101E600006D018688442F9D1196004339342F8D13E
:101E7000201C00F06BFE201C10BDC04650790000F5
:101E8000D802001008B503480349044A00F006FBD5
:101E900008BDC046140400103C0700007812000082
:101EA000F0B5474680B40E1C82B03449051C04F0DE
:101EB000DBF9041E08D1324B1B68002B0FD0201C0D
:101EC00002B004BC9046F0BD281C2E4904F0CCF9A9
:101ED000002807D12A4B01241B68002BEFD1FFF704
:101EE000D1FFECE7281C284904F0BEF9002830D0C7
:101EF000264F00243B1C03E001340433402C32D035
:101F00001A68002AF8D12B783A2B2FD06846291C62
:101F100000F02AFD684600F07FFD002823D06846C7
:101F200000F05EFD00281AD1684600F04BFD051E4A
:101F300019D0036868469A68904600F041FD321C4B
:101F4000011C281CC04700280DD0A300F850033402
:101F5000B5E70B4B02241B68002BB0D1BFE76846E6
:101F600000F04AFDEFE701246442A8E7281C084975
:101F70006A4604F003F90098E5E7C04638790000A6
:101F8000DC0300104879000040790000D8020010FE
:101F90008079000008B5002302280ADD0338074ACB
:101FA000810088588B50002805D003685B689847EB
:101FB000031C181C08BD01235B42FAE7D80200107D
:101FC000F8B50C1C171C022812DC104B1B68002BE8
:101FD00001D1FFF757FF002F08D00D4DE6192178EA
:101FE000281C013400F09CFBB442F8D1381CF8BD29
:101FF0000338084B8000C058002803D003681B68D2
:102000009847F4E701204042F1E7C046DC030010A6
:1020100014040010D802001010B50C1C022809DCB2
:102020000C4B1B68002B0FD00B4800F071FB20708D
:10203000012010BD0338094B8000C058002806D08D
:1020400003689B689847F4E7FFF71CFFECE7012063
:102050004042EEE7DC03001014040010D802001028
:1020600008B5031C0120022B08DD033B054A9B0039
:102070009858002803D00368DB68984708BD012002
:102080004042FBE7D802001008B5031C0020022BD9
:1020900008DD033B05489B001858002803D003685F
:1020A0001B69984708BD01204042FBE7D802001099
:1020B00008B5022804D880239B014B60002008BD8E
:1020C00003F02CFB0923036001204042F7E7C046E0
:1020D000074A13681818EFF30881884202D210608B
:1020E000181C7047034B0C2201201A604042F8E78D
:1020F000CC0000102404001008B5002800D1FEE731
:1021000000F0C8FBFBE7C04608B5002103F084FFE0
:1021100008BDC04608B500F061F808BD08B4024B20
:102120009C46403808BC60471521000008B500F007
:102130005BF808BD08B4024B9C46403808BC6047B9
:102140002D21000038B5041C1D1C00F029F8201CAE
:10215000291C403000F0BAF8054B201C1A1C08322C
:1021600022601A1C203254332264636438BDC04696
:102170009079000008B54B005918C9000831401883
:10218000011D4B69002B05D04068002801D00431A7
:10219000984708BD4368002BFBD09847F9E7C04635
:1021A00038B50C4B051D0360002343600372C36008
:1021B00003624362836396239B01041CC363281C50
:1021C00000F06CF9281C0449221C00F095FA201C30
:1021D00038BDC046A07700007521000008B5043066
:1021E00000F096FA08BDC04610B504300C1C00F093
:1021F00097FA201C10BDC04600207047F8B58E1815
:10220000051C0F1EB74210D00C1C01E0A6420AD0DC
:1022100001342B68621E11785B6A281C98470130D4
:10222000F4D1E01BF8BDF01BFCE70020FAE7C04644
:10223000F8B58E18051C0F1EB74210D00C1C04E018
:102240000134631E1870A64207D02B68281C9B6AB5
:102250009847431CF4D1E01BF8BDF01BFCE70020BD
:10226000FAE7C04600207047002070470020704702
:1022700000207047074B10B51A1C08323C33041C71
:1022800002604360406903F0BDFA201C00F020FBAF
:10229000201C10BDF079000008B4024B9C460438A5
:1022A00008BC60477522000010B5041CFFF7E2FF70
:1022B000201C00F04BFC201C10BDC04608B4024B93
:1022C0009C46043808BC6047A922000010B584B0C1
:1022D000041C00F035FB0B4B01A81A1C3C33636057
:1022E00008320023636122600749221C03F024FFA7
:1022F000064901A803F05EFC6061FFF705FF201CA2
:1023000004B010BDF079000080790000387A000038
:102310000EB410B583B005AB04CB041C4069019327
:1023200003F030FB60690599019A04F037FC03B0B3
:1023300010BC08BC03B01847FEE7FEE7FEE7FEE767
:10234000FEE7FEE70D4B10B51A68002A10D10122F6
:102350001A600B4B80229C584021214399505968A8
:10236000084A0A405A6059688022D2000A435A60DB
:10237000001201238340181C10BDC046D803001072
:1023800000800440FFFBFFFF10B5041C01804B1CC4
:102390000BD0081CFFF7D6FF044B6060E360044BD2
:1023A0002361044B6361044BA36010BD002200A0B5
:1023B000802200A0002100A0002000A008B500237A
:1023C000C05E00F011F808BD002907D0012904D132
:1023D0008368426819680A431A60704783684168D5
:1023E0001A688A431A60F8E7A2231B01984211D0A9
:1023F0000B4B98420ED0FF2318400A4BC0180268BE
:10240000042908D018239A4303231940CB00111C38
:102410001943016070478023DB0013430360F9E731
:102420001C0B000000400440F8B50E4B07681E6806
:102430000D1C3609301C00F097FB0B4CF023FF22DB
:1024400001383862E250E058396A01300131704396
:102450006943E75800F088FBFF433F18F423E75037
:10246000F8BDC046F40300100080044030B5013BC5
:102470000739012A0FD0023A5442624152010068E2
:10248000012405688900A5439B010C431C431443A8
:102490000560046030BD3022F1E7C046F0B54D461E
:1024A00044465F465646F0B4844C87B00391217889
:1024B000051C0492002900D1CFE0039C804824121F
:1024C000049F26B283463F12A1460196FF220026B2
:1024D0007C4C7D488C46BA4659460023AB46904614
:1024E0000597351CE25C464692001758E218527870
:1024F00096403740CE5CD740B60036583A1C019F14
:102500000296CE187678BA4200D194E002330135B3
:10251000062BE7D15D468B4661465246484692B24D
:1025200086B2924600230127081C18410122074267
:1025300000D1A7E00133032BF6D16448FFF7EEFB8F
:1025400005235B42994680235C4F9B010193604BBE
:10255000397804270097042000229C46FF27012396
:102560000290904605975B42474605983943534F82
:1025700062465B00287139702A60E218117852783F
:10258000514836B2944696408900FF220918141C1F
:1025900060460F688440A44660463C1C8443344334
:1025A0000C605B441978484C8900091908685B780D
:1025B000564634B29C409A40031C934323430B601D
:1025C000009F444B444E8022942101245C50B7501C
:1025D0009858071C019807439F505A684F463A4045
:1025E0005A605A68029802435A6059583B4B18681F
:1025F00000F0BAFA3A4B962118608901281CFFF7BF
:1026000013FF00220123281C0821FFF72FFF2B684E
:102610008222009F12019A6037601A68039E22434B
:102620001A60304B9E4221D007B03CBC9046994680
:10263000A246AB46F0BD4246029FB2403A40F2404D
:10264000161C059A964200D060E72E1C264B5D466C
:102650002E71B603F6182E60E6E7039E184F361269
:102660001212B1469246174CBB4656E71F4B049FC9
:102670009F42D9D11E4B291C08221E481C6003F022
:10268000F8FBD1E7DFB205979803174F8446BC44A7
:10269000171C9F40FFB20E20C018B846171C874079
:1026A0000197D81C171C87400297FF43B946059F26
:1026B0000337FFB2BA40009256E7C046F00300105D
:1026C0003C7A0000447A000000C000404C7A0000D0
:1026D000000006400080044000E100E0C40000105B
:1026E000F40300103C070000004006407812000090
:1026F000DC03001014040010034B19600179034B34
:102700008900CA507047C046EC030010E003001077
:102710000268012193681942FCD050697047C04695
:102720000268042093681842FCD0D1617047C0460B
:10273000174B70B51C68002C28D101261E60154B64
:102740001549186800F010FA144B011C186080201D
:10275000000600F009FA124B80221860114B802508
:102760009958ED002943995059680A200A435A6044
:102770000D4B012252421A60802212069E600B49C4
:102780001A619C6100F06CF8094B1D6070BDC04679
:10279000F8030010C800001040420F001C04001095
:1027A000200400100080044000400040C1280000C8
:1027B00000E100E008B5094B1B68002B01D1FFF7D1
:1027C000B7FF074B07485B68C01A074B196800F052
:1027D000CBF9064B1B68C01808BDC046F8030010B3
:1027E00000400040FFFFFF7F1C040010FC030010AE
:1027F00010B5041CFFF7DEFF064B241A1868064BC1
:1028000060438024240604431C61996901220A4321
:102810009A6110BD1C04001000400040024B0121D1
:102820009A698A439A61704700400040094B01222F
:10283000D9690A4200D0DA61064B0122D9680A42FE
:1028400006D0DA60044B054A1968126852181A60FB
:102850007047C04600400040FC03001020040010F8
:102860000B4B30B59C689B68221C002B0BD180253C
:102870006D055A191D5904331560C02BF7D18022FC
:10288000034B52059A6010308000815030BDC04625
:1028900000ED00E000B587B072B608496846FFF762
:1028A00055FA039B019A96201A60FFF793FA049B4E
:1028B000019A96201A60FFF78DFAF2E77014000073
:1028C00008B5024800F0AEF808BDC046747A0000B2
:1028D000074B10B51A1C08323433041C02604360E5
:1028E000043000F0C5F8201CFFF796FA201C10BD3C
:1028F000807A000008B4024B9C46043808BC60474C
:10290000D1280000094B10B51A1C08323433041CBE
:1029100002604360043000F0ABF8201CFFF77CFA43
:10292000201C00F013F9201C10BDC046807A000066
:1029300008B4024B9C46043808BC604705290000D7
:10294000074B10B50022041C08C000F0CBF8054B63
:10295000201C1A1C083234332260636010BDC0464C
:1029600058790000807A000038B500230360436086
:102970000B78041C2F2B01D0201C38BD4B78002B6A
:10298000FAD0481C20604B782F2B14D0002B15D088
:10299000031C01E0002A0CD05D1A013323601A7871
:1029A0002F2AF7D1291C0133236000F0ADF86060B5
:1029B000E2E7291CF9E7031C0021F4E70021F4E712
:1029C0000068704710B5041C4068002805D000F06E
:1029D000BBF8012801D1606810BD0020FCE7C046AB
:1029E000406808B5002805D000F0AEF843425841D1
:1029F000C0B208BD0020FCE710B5041C40680028E8
:102A000008D000F0A1F8002804D16068002801D0A7
:102A1000043810BD0020FCE74068431E9841C0B256
:102A20007047C04638B50368041CDB689847636884
:102A30005B680DE01D6823685B6898472D1A002DC0
:102A40000CDC626851688B6853601268002A0CD1F4
:102A5000002BEFD123689B68984738BD62682368D4
:102A600052681B6910689847F7E748689047DEE7A7
:102A70000A4B826808330360002A0AD0084B1A68A0
:102A8000824201D106E01A1C53688342FBD143689D
:102A90005360704742681A60FBE7C046C07A000086
:102AA000080400100D4B8268083310B5041C036045
:102AB000002A0AD00A4B1A68904201D10AE01A1C77
:102AC00053689C42FBD163685360201C00F03EF8C1
:102AD000201C10BD42681A60F7E7C046C07A0000AB
:102AE00008040010064B8160083303600023436034
:102AF0000273002903D0034B1A68186042607047C4
:102B0000C07A000008040010F8B50E4B071C1C68C2
:102B10000E1C002C11D0A568002D0BD0281C391CD0
:102B2000321C03F0B2FB002804D1281C03F0A6FBE2
:102B3000B04204D06468002CEDD10020F8BD201C08
:102B4000FCE7C04608040010007B704708B5002869
:102B500001D0FEF7A9FE08BD08B5031C081C191C0E
:102B600002F0CCFD08BD0000002934D00123002272
:102B700010B488422CD301242407A14204D28142FC
:102B800002D209011B01F8E7E400A14204D281420C
:102B900002D249005B00F8E7884201D3401A1A4389
:102BA0004C08A04202D3001B5C0822438C08A042C0
:102BB00002D3001B9C082243CC08A04202D3001B76
:102BC000DC082243002803D01B0901D00909E3E7F0
:102BD000101C10BC7047002801D00020C04307B46F
:102BE000024802A14018029003BDC046190000002F
:102BF0000029F0D003B5FFF7B9FF0EBC4243891A94
:102C00001847C0467047C0468446101C62468C4632
:102C1000191C634600E0C0461FB501F03BFE0028CA
:102C200001D40021C8421FBD10B501F06BFD404228
:102C3000013010BD10B501F02DFE002801DB002091
:102C400010BD012010BDC04610B501F023FE0028C4
:102C500001DD002010BD012010BDC04610B501F0FF
:102C60009BFD002801DC002010BD012010BDC046E6
:102C700010B501F091FD002801DA002010BD0120FF
:102C800010BDC0468446081C6146FFE71FB500F032
:102C900047FB002801D40021C8421FBD10B500F039
:102CA000CDFA4042013010BD10B500F039FB0028CC
:102CB00001DB002010BD012010BDC04610B500F0A2
:102CC0002FFB002801DD002010BD012010BDC046F3
:102CD00010B500F0DDFA002801DC002010BD012055
:102CE00010BDC04610B500F0D3FA002801DA00206C
:102CF00010BD012010BDC0469E2110B5C905041CA1
:102D0000FFF7F0FF002803D1201C00F0EFFD10BDFD
:102D10009E21C905201C00F079FC00F0E7FD80230E
:102D20001B06C018F3E7C046F8B543024400C50FC0
:102D30004E024800240E2A1C9B09000EC90FB6093A
:102D40008D4256D0221A002A00DC83E000281AD1D6
:102D5000002E00D06FE0580704D00F221A40042A3A
:102D600000D00433590137D50134FF2C00D17DE068
:102D70009B015B0AE0B22A1C5B02C405580AD20719
:102D800020431043F8BDFF2CE5D08021C9040E4339
:102D90001B2A00DD27E1311C2020D140821A9640F9
:102DA000721E96410E439B1B5801D4D59B019F096F
:102DB000381C02F085FC421F974094425ADC141BD9
:102DC0001F231B1B3A1C9F40611C3B1CCA405F1EFB
:102DD000BB4113430024BEE7DB08E0B22A1CFF2CF2
:102DE00004D1002B79D08021C9030B435B025B0A1D
:102DF000C2E7211A002941DD002822D0FF2CAAD0E9
:102E00008020C00406431B2900DDEAE0301C202797
:102E1000C840791A8E40711E8E4106439B19590194
:102E200099D50134FF2C57D0704901221A400B402C
:102E30005B0813438FE7013A002AB4D0FF2CA7D1D7
:102E400089E7002E00D186E701390029E6D0FF2C62
:102E5000D9D180E7002A1DD1621CD2B2012A4DDDF2
:102E60009F1B7A0125D5F71A0D1CA1E72A1CFF200C
:102E7000002381E75D4BA41A3B406CE7002946D153
:102E8000611CC8B201282ADDFF2925D0F3185B0890
:102E90000C1C60E7002C13D0FF2818D08024E40419
:102EA000524223431B2A4DDD0123F31A041C0D1C3F
:102EB0007AE7002F00D07BE700220020002395E76F
:102EC000002B3BD0D243002AEFD0FF28EAD1331C9D
:102ED000FF240D1C3FE70022FF2000234CE7002CBD
:102EE0005AD1002B77D0002E00D134E79B1958011E
:102EF00000D430E73D4A012413402CE7002C15D1C3
:102F0000002B2FD1002ED7D0331C0D1C23E7002C13
:102F100021D1002B53D0C943002904D0FF284BD026
:102F20001B294FDD01239B19041C78E7002B22D1BC
:102F3000002ED0D0331C0D1CFF240CE7331C041CC6
:102F40000D1C08E71C1C2025D440AA1A93405A1EC9
:102F500093412343A9E7FF282ED08024E40449426B
:102F60002343DDE7002E00D1F5E69A1B500134D54E
:102F7000F31A0D1CEFE6FF24002E00D1EBE68022B1
:102F8000DB08D203134204D0F608164201D1331CE9
:102F90000D1CDB00FF24DEE6002B0DD0FF24002EED
:102FA00000D1D8E68022DB08D2031342F1D0F60824
:102FB0001642EED1331CECE7331CFF24CBE6331C66
:102FC000041CC8E61C1C2027CC40791A8B40591ED3
:102FD0008B412343A7E7331CBDE6131E00D0BAE69E
:102FE0006AE701261AE70126DDE6C046FFFFFFFB80
:102FF000F0B55F4656464D464446F0B4460245009D
:10300000C00F85B00F1C760A2D0E804641D0FF2DD3
:1030100026D08024240400212643F6007F3D8946E3
:103020008B46F90F7C027800640A000E00918A46F4
:103030003CD0FF2834D080231B041C430023E40031
:103040007F380193009F4346019A7B4049469C4646
:1030500011430F2900D971E0764F89007F58BF4690
:10306000002E3ED10822022391469B46D9E75A46BC
:10307000341CC24601920199022937D0032900D19C
:10308000CFE0012900D0ABE053460B4000220026E0
:1030900032E0002E19D10421012289469346C0E76F
:1030A000221C531E9A4102320192CBE7012701975D
:1030B000002CC7D0201C02F003FB431F9C4076234A
:1030C0005B420021181A0191BCE7301C02F0F8FAAB
:1030D0007625431F9E406D4200232D1A99469B463C
:1030E0009FE70C23032199468B469AE7D446012398
:1030F00067463B40FF2200267602D205700ADB07B6
:103100001043184305B03CBC90469946A246AB46D6
:10311000F0BD80260023F603FF22EDE70022002603
:10312000EAE78020C00306423BD0044239D1061CA6
:1031300026437602760A009BFF22DDE7281A0390D9
:1031400076016401A64239D3361B1A2201230120DD
:10315000311C5B007600002901DBB44201D8361B2C
:103160000343013A002AF3DC741EA641341C1C43BD
:10317000039A7F32002A27DD630704D00F23234000
:10318000042B00D00434270103D52B4B039A1C4099
:103190008032FE2A0BDD012361460B40FF22002610
:1031A000AAE706437602760A4346FF22A4E7A40173
:1031B00001236746660AD2B23B409DE7039F1B226C
:1031C000013F03970023C2E77E23039F5B42DB1B83
:1031D0001B2B07DD012361460B40002200268BE7F5
:1031E000D446C5E7221CDA40039B9E339C40231C37
:1031F0005C1EA34113435A0704D00F221A40042A2D
:1032000000D004335F0105D5012361460B40012244
:10321000002671E79E01624601231340760A0022D0
:103220006AE78026F60326437602760A5346FF2293
:1032300062E7C046D07A0000FFFFFFF74A02430270
:1032400070B55C0A550A43004A001B0EC60F120EE9
:10325000C90FFF2B05D0FF2A08D0012093420BD0C5
:1032600070BD0120002CFBD1FF2AF6D10120002DDA
:10327000F6D101209342F3D1AC42F1D18E4205D078
:10328000002BEDD1201C441EA041E9E70020E7E718
:103290004A024302F0B55C0A550A43004A001B0E7D
:1032A000C60F120EC90FFF2B31D0FF2A34D0002BCE
:1032B00016D1604260418446002A14D0002820D1F3
:1032C0008E4217D1934215DC04DBAC4212D80020A9
:1032D000AC4212D2704270414042012318430CE0CC
:1032E000002AEDD194466F426F416046002805D117
:1032F000002FE5D0704201231843F0BD0020002FBD
:10330000FBD148424841404201231843F5E7002CD5
:10331000CBD002204042F0E7002DC8D0F9E7C046EC
:103320004A024302F0B55C0A550A43004A001B0EEC
:10333000C60F120EC90FFF2B27D0FF2A29D0002B52
:1033400010D0002A15D194466F426F416046002884
:1033500015D00020002F04D14842484140420123AB
:103360001843F0BD604260418446002AECD000283A
:10337000F2D18E4211D0704201231843F1E7002FA1
:10338000F7D0704201231843EBE70220002CE8D16C
:10339000D3E70220002DE4D1D1E79342EBDC04DB3C
:1033A000AC42E8D80020AC42DBD2704270414042CF
:1033B00001231843D5E7C046F0B55F4656464D4653
:1033C0004446F0B44402460083B00F1C640A360E33
:1033D000C50F002E41D0FF2E22D080231B040020D9
:1033E0001C43E4007F3E82468046391C4B007F022E
:1033F000C90F7F0A1B0E8B463BD0FF2B34D0802297
:1034000012041743FF007F3B00215A466A40019295
:1034100052460A430F2A63D87A4892008258974648
:10342000002C3FD10822022392469846DDE7019501
:10343000404602282AD1019A01251540FF23002485
:103440006402DB05600AED071843284303B03CBC67
:1034500090469946A246AB46F0BD002C27D10420E9
:10346000012282469046C0E7391C4A1E9141023132
:10347000CBE70121002FC8D0381C02F021F9431FEF
:103480009F4076235B421B1A0021BEE7032800D130
:10349000AEE001284FD1019842461040C5B200234A
:1034A0000024CDE70C2303209A4680469DE7201C8C
:1034B00002F006F97626431F9C4076420023361A16
:1034C0009A46984691E780240025E403FF23B7E756
:1034D0005B463C1C01938846AAE73C1C8846A7E74C
:1034E000250C24043A0C240C3F04F6183F0C211C34
:1034F000231C794353436F435543FB180A0C9B1815
:10350000B1469F4202D980225202AD1809041A0422
:10351000090C521894011B0C611E8C41920EED187F
:103520001443AD012C43230105D50122630801207A
:10353000144081441C434B467F33002B2DDD600734
:1035400004D00F222240042A00D00434220103D5E3
:103550002D4B1C404B468033FE2B17DD019B012574
:103560001D400024FF236BE78020C003044208D0E5
:10357000074206D1041C3C436402640A5D46FF23F3
:103580005EE704436402640AFF2359E70198A4013B
:103590000125640ADBB2054052E77E235B424A46BE
:1035A0009B1A1B2B05DD019B01251D4000240023D8
:1035B00046E7221CDA404B469E339C40231C5C1E8F
:1035C000A3411343580704D00F221A40042A00D005
:1035D00004335A0105D5019B01251D400024012318
:1035E0002EE701989C010125640A0540002327E786
:1035F0008027FF03019B3C43640201251D40640AB0
:10360000FF231DE7107B0000FFFFFFF7F8B5C20F97
:10361000430244004D024800240E161C9B09000E74
:10362000C90FAD09FF2800D17EE0012779408A4209
:1036300058D0221A002A00DC89E000281BD1002D76
:1036400000D075E0580704D00F221A40042A00D099
:103650000433590138D50134FF2C00D183E09B019C
:1036600001225B0AE0B232405B02C405580AD2076D
:1036700020431043F8BDFF2CE4D08021C9040D4342
:103680001B2A00DD2DE1291C2020D140821A954003
:103690006A1E95410D435B1B5801D3D59B019F09C1
:1036A000381C02F00DF8421F9740944260DC141B56
:1036B0001F231B1B3A1C9F40611C3B1CCA405F1E02
:1036C000BB4113430024BDE70122DB08E0B23240D6
:1036D000FF2C04D1002B7ED08021C9030B435B0259
:1036E0005B0AC1E7211A002946DD002826D0FF2CFD
:1036F000A8D08020C00405431B2900DDEFE0281C72
:103700002027C840791A8D40691E8D4105435B19F9
:10371000590197D50134FF2C5CD0734901221A401E
:103720000B405B0813438DE7002D00D07FE77CE75B
:10373000013A002AAFD0FF2CA2D183E7002D00D19F
:1037400080E701390029E2D0FF2CD5D17AE7002AA1
:103750001ED1621CD2B2012A4EDD5F1B7A0126D532
:10376000EF1A0E1C9CE701223240FF2000237BE76A
:103770005D4BA41A3B4065E7002946D1611CC8B2E5
:1037800001282ADDFF2925D0EB185B080C1C59E71E
:10379000002C13D0FF2818D08024E4045242234385
:1037A0001B2A4DDD0123EB1A041C0E1C74E7002FAD
:1037B00000D075E700220020002390E7002B3BD0CB
:1037C000D243002AEFD0FF28EAD12B1CFF240E1C85
:1037D00038E70022FF20002346E7002C5AD1002BB7
:1037E00077D0002D00D12DE75B19580100D429E7CF
:1037F0003D4A0124134025E7002C15D1002B2FD181
:10380000002DD7D02B1C0E1C1CE7002C21D1002B27
:1038100053D0C943002904D0FF284BD01B294FDDCA
:1038200001235B19041C73E7002B22D1002DD0D09B
:103830002B1C0E1CFF2405E72B1C041C0E1C01E78F
:103840001C1C2026D440B21A93405A1E9341234395
:10385000A9E7FF282ED08024E40449422343DDE772
:10386000002D00D1EEE65A1B500134D5EB1A0E1C88
:10387000E8E6FF24002D00D1E4E68022DB08D20335
:10388000134204D0ED08154201D12B1C0E1CDB00A5
:10389000FF24D7E6002B0DD0FF24002D00D1D1E668
:1038A0008022DB08D2031342F1D0ED081542EED19D
:1038B0002B1CECE72B1CFF24C4E62B1C041CC1E6CC
:1038C0001C1C2027CC40791A8B40591E8B41234366
:1038D000A7E72B1CB6E6131E00D0B3E66AE7012566
:1038E00015E70125D7E6C046FFFFFFFB4302590A53
:1038F0004300C20F1B0E00207E2B0DDD9D2B0CDC28
:10390000802000040143952B0ADC9620C31AD9407D
:103910004842002A00D1081C7047034BD018FBE72F
:10392000963B9940F4E7C046FFFFFF7F70B5041E49
:103930003CD0C60F00D04442201C01F0C1FE9E23A3
:10394000251C1B1A962B0CDC083884406402640A80
:10395000DBB2321C6402DB05600AD2071843104355
:1039600070BD992B0ADD0522121A211CD1400A1CB8
:10397000011C1B318D40691E8D411543052801DD59
:10398000421F9540164C2C406A0704D00F22154068
:10399000042D00D0043461010CD59F23181AFF2890
:1039A0001AD0A401640AC3B2321CD3E70022002358
:1039B0000024CFE7E408FF2B04D06402640ADBB2E2
:1039C000321CC7E7002C04D08020C00304436402EB
:1039D000640A321CFF23BDE7321CFF230024B9E731
:1039E000FFFFFFFB10B5041E33D001F069FE9E23DC
:1039F0001B1A962B09DC083884406402640ADBB287
:103A00006402DB05600A184310BD992B0ADD05220C
:103A1000121A211CD1400A1C011C1B318C40611E52
:103A20008C411443052801DD421F9440144A224072
:103A3000610704D00F210C40042C00D00432510146
:103A40000AD59F23181AFF2816D09401640AC3B21E
:103A5000D6E700230024D3E7D208FF2B03D054027B
:103A6000640ADBB2CCE7002A06D08024E4031443C6
:103A70006402640AFF23C3E7FF230024C0E7C046B3
:103A8000FFFFFFFBF8B55F46564644464D46F0B48F
:103A90000C034D00CE0F610A440F2143C4001803EC
:103AA00080465800400D8246D80F84464046400A62
:103AB000530F0343D0006D0D371C834652466645B5
:103AC00000D19DE0AF1A002F00DC03E1002A38D1BD
:103AD000184300D0E4E0630709D00F232340042BF0
:103AE00005D0231DA342A441644209191C1C0802ED
:103AF00000D478E0CE4B6A1C9A4200D105E1CD4B50
:103B0000E408194048075205490204430B0B520DC3
:103B1000371C002000211B03201C1C0B0B0D1B0558
:103B2000C54D2343520552081D4015436D006D08D5
:103B3000FF07291C39433CBC90469946A246AB4638
:103B4000F8BDBB488542C6D0802000040343382F0F
:103B500000DDECE01F2F00DD20E12020C01B1A1C3F
:103B6000814682405846F8400243944658464A46A9
:103B70009040421E9041FB40624602431F1CA21A25
:103B80009442A4416442C91B091B141C0B02A2D518
:103B900049024F0A002F00D1C4E0381C01F090FD0B
:103BA000021C083A1F2A00DDB7E02821091A201C50
:103BB0009740C84007439440954200DDA9E0551B5B
:103BC000691C1F2900DDD8E01F22551B3B1C221C4D
:103BD000AB40CA40AC40651EAC411343CF401C43D0
:103BE000391C002577E74807E4086A05C908520D23
:103BF000371C04438E4B9D4248D009030B0B88E7CA
:103C0000AA1A9446002A00DC98E05046002853D0B7
:103C10008748854200D15EE7802000040343624666
:103C2000382A00DDFDE01F2A00DD4BE1202260463E
:103C3000101A1A1C82408246914658466246D0406D
:103C40004A4602439046584652469040421E904192
:103C5000424602436046C3401219A242A441644254
:103C600059180919141C080200D434E7704B0135A7
:103C70009D4200D124E16F4B60081940012323408D
:103C80001C1C0443CB071C43490824E70B1C23439B
:103C900000D1C7E180231B030B431B031B0B38E739
:103CA000013F002F64D15846221A9442A441644235
:103CB000C91A091B141C69E75846184300D10AE7C2
:103CC0000122524294446046002800D0C5E0584684
:103CD0000219C2E7002F72D1681C4005400D01286F
:103CE00000DCDEE05A46A21A9442BF41C81A7F4265
:103CF000C71B380200D488E05A46141BA3459241E2
:103D0000591A52428F1A664644E7371C0023002492
:103D1000FFE64849AD1A3940DDE6271C28388740C0
:103D2000002449E7201C01F0CBFC203038E75A463C
:103D30001A43531E9A41D2B2002720E7002A00D02E
:103D4000DDE0681C4205520D012A00DC8EE0384D92
:103D5000A84200D1B3E05D462A19A242A4416442C0
:103D600059180919CC07520814434908051CB2E632
:103D70002F48854200D0EAE6ADE62B1C1F3B3A1CDB
:103D8000DA40131C20296DD03F22551BAF403C4325
:103D9000601E84411C43002100259CE6381C20380D
:103DA0001A1CC240101C202F5ED04022D71BBB40E3
:103DB0005A461A43531E9A4102430027DFE6002D5C
:103DC0003CD01B4DAA4500D194E080252D047F42B4
:103DD0002943382F00DDADE01F2F00DD2CE1202529
:103DE000ED1B081C261CA840FE40AC400643651E87
:103DF000AC413443F9405D462C1BA34592415B1A0C
:103E00005242991A55466646C0E6131C3B43141CA1
:103E1000002B00D0BEE60027002200250021002450
:103E2000E8E65A461A43531E9A41D2B2002313E7DA
:103E3000FF070000FFFF7FFFFFFF0F800D1C2543E2
:103E400058D0FF43002F51D1041BA3459241591A6A
:103E50005242891A5546664698E69648854200D0F1
:103E6000DDE638E6002792E70023A1E7081C20439F
:103E7000002D00D0C0E0002800D1FBE058461843D8
:103E800000D128E658460219A242A44164425918BA
:103E90000919141C0A0200D41DE6874B012519409C
:103EA00019E6081C2043002D39D100286DD1594650
:103EB000194300D1BDE0191C5C4666460BE6051CA3
:103EC0002A1CABE7604620381A1CC2406046914667
:103ED000202800D1ABE04022121A93405A461A43E0
:103EE000531E9A414B461A430023B5E6714DAA452D
:103EF00000D06EE7191C5C4655466646EBE5002D82
:103F00001ED10D1C254373D0D543002D6DD15C44CB
:103F10005C4592415918524289185546A3E600283B
:103F200049D15946194300D196E0191C5C466646B2
:103F3000604DD0E50C43611E8C41E4B200215AE78C
:103F40005C4DAA4554D05542802210040143382DBF
:103F500000DD85E01F2D00DD95E02022501B0A1CAE
:103F600084468240201CE8400243904662469440CA
:103F7000601E844142461443E9405C445C459241E2
:103F8000CB185242991855466DE65846184300D151
:103F9000A1E55846271ABC429241C81A5242801ADB
:103FA00002026AD55846041BA3459241591A52424F
:103FB000891A66468FE55846184336D04807E40804
:103FC00004438020C9080003014208D0DD080542EF
:103FD00005D15946CA085C071443291C6646630F7D
:103FE000C9001943E400334D75E5324A9245AED11C
:103FF000191C5C4655466EE5002837D058461843D4
:1040000013D080254807E408C9082D03044329423A
:10401000E5D0D8082842E2D15D46EA085C0714439F
:10402000011CDCE70023002473E5224D53E5002347
:1040300054E700270022F1E63D1C203D0A1CEA401F
:10404000151C202F31D04026F71BB9400C43611EB0
:104050008C412C430021CEE6164A0027151CDDE6D4
:104060000C43611E8C41E4B2002186E7191C5C46BA
:10407000104D30E5191C5C462DE5031C3B43D8D0A0
:10408000011C3C1C27E52020404240190A1CC2406C
:104090009046202D0BD04020451BA9400C43611EAB
:1040A0008C4145462C43002167E70021CEE70021E3
:1040B000F4E7C046FF070000FFFF7FFFF0B556465C
:1040C00044465F464D46F0B41F1C0B031B0B98463D
:1040D0004B0087B0041C81465B0DC80F161C9A4626
:1040E0000090002B51D06A4B9A4531D08022414636
:1040F00052030A43630FD2001A43664B90460025D1
:10410000E20091469A44002402953B031B0B9B4618
:10411000FD0F7B00311C5B0D019560D05C4A934222
:1041200054D08021584649030143720FC9001143FE
:10413000584A8B469B18F1000020009A04436A40BD
:1041400003920F2C00D9ADE0534EA4003459A7467A
:10415000404604436ED10021022508248846894642
:104160000295D2E7009C0298C34649460194022872
:1041700064D0032800D1ABE2012800D038E2019AD4
:10418000002402400025A14660E0434623434AD074
:104190004046002800D1C0E101F092FA031E272B0F
:1041A00000DDB3E128210D1A211C083B4246E940FD
:1041B0009A400D1C1543221C9A40A8469146374B45
:1041C00000251B1A9A46002402959EE75A4616437C
:1041D0000320002EB1D1B34600210220ADE75A469C
:1041E00032431BD05B46002B00D18AE1584601F0D8
:1041F00067FA272800DD7DE12822171A011C321CEE
:1042000008395B46FA408B40171C1F43331C8B4018
:10421000BB46191C214B1B1A00208EE70027BB460A
:104220000021012089E700200125042480468146E1
:1042300002956AE703250C24029566E7019C039426
:10424000039D01222A400024114DA1460020002197
:104250002403260B0C0D2405114B34432D0523405C
:104260002B435B005B08D207191C4846114307B07B
:104270003CBC90469946A246AB46F0BD0022802445
:1042800024039146024DE1E700240025A146DDE725
:10429000FF07000001FCFFFF507B00000DFCFFFF4B
:1042A000FFFF0F805546ED1A0495D84500D953E11C
:1042B00000D14EE1049C0025013C4E460494474643
:1042C000A946584603020C0E1C430902250C230480
:1042D0001B0C0091381C291C0193FEF745FC019929
:1042E00083464143381C8A46291CFEF781FC330C67
:1042F000090419438A450CD95B460919013B8C42D4
:1043000000D947E18A4500D844E102225242934451
:1043100009195346CB1A181C291C9846FEF724FC91
:10432000071C0198291C784382464046FEF760FC32
:1043300036040B04360C33439A4509D91B197A1EEF
:104340009C4200D924E19A4500D821E1023F1B1983
:104350005E4632041743380CBB46009E009F514610
:104360003F0C32045B1A5946BA46120C0F043F0C3C
:10437000904651467A434F43414641435646704327
:10438000CF19160CBE19B14202D980277F02C0197D
:10439000310C12043604120C4018B618834200D2B5
:1043A000C4E000D1BEE0191A4846861BB145BF41A2
:1043B0007F42CF1BA74200D113E1291C381CFEF716
:1043C000D3FB019902904143381C8946291CFEF712
:1043D0000FFC330C0904194389450CD9029B0919B8
:1043E000013B8C4200D9FFE0894500D8FCE0029FE8
:1043F0000919023F02974F46CF1B381C291C05970D
:10440000FEF7B2FB071C0198291C784381460598EA
:10441000FEF7EEFB36040904360C0E43B14509D90C
:1044200036197B1EB44200D9E0E0B14500D8DDE08A
:10443000023F3619029D4946761A290439430B0476
:1044400057460A0C1B0C40464546584355437B4390
:104450007A43EB18070CDB199D4202D980256D02C7
:1044600052191D0C00041B04000C52191B18964213
:1044700035D300D1FCE001231943049E994FF5196F
:10448000002D00DCA1E0480709D00F230B40042BCE
:1044900005D00B1D8B42894149428B44191C5A4659
:1044A000D20107D5904B5C46049E80271C40FF003C
:1044B000A346F5198D4B9D427ADD039C01222240D3
:1044C00000248B4DA146C1E68024240347462742A1
:1044D0004CD13C432403240B009A854DB6E6361993
:1044E000481EB4425ED9011C9642C4D1009E9E4231
:1044F000C1D1C2E7031C283B311C99408B460021E7
:1045000088E6301C01F0DCF8203072E6283B211CE4
:10451000994000228846914651E6201C01F0D0F8CF
:1045200020303BE60021B14500D33DE7009F5A46CD
:10453000B944B945BF417F423F19FB18013A9C423B
:104540001ED2984200D97EE000D1B5E0191A9346F8
:104550002AE7894500D8ADE64846464642467708F0
:10456000D3074608C0071E438146AAE658462042A4
:1045700012D1044324032A1C240B89465C4D65E6B2
:10458000A342E3D1009F4F45DBD9211A93460BE7A5
:10459000171CDDE69B46BCE63C432403240B009A33
:1045A000534D53E6B24259D800D18AE0011C62E76C
:1045B0005F46C9087B07039E0B437C026D05012201
:1045C0009946240B6D0D324040E64A4B049FDB1B9D
:1045D000382B10DD039C0122224000240025A14637
:1045E00034E60121494248E7029304E71F1C21E712
:1045F000019C039441E71F2B40DC3F48049F0C1CA7
:104600003A1858469140DC40904020430A1C511E05
:104610008A41011C11435A46DA40131C480709D04D
:104620000F220A40042A05D00A1D8A4289414942C4
:104630005B18111C1A0234D5039C0122224000246D
:104640000125A14602E6009F02214942B9448B445C
:10465000B945894149420919CB18A4E6009D881E35
:104660006900A942AD416D422C19361900913AE713
:10467000002B00D033E70024009437E71F4A049C46
:104680005D46121BD5402A1C202B1FD01C4E5F46B6
:10469000A3199F403B1C19434B1E99411143002312
:1046A000BCE75A07C9080A43039F91465B020122EF
:1046B0001C0B3A400025C9E54E45C4D8934600215D
:1046C00072E6009F9F42C9D3011C0FE70023E2E777
:1046D000802424035F463C432403240B019A89462B
:1046E000034DB3E5FF030000FFFFFFFEFE070000E0
:1046F000FF07000002FCFFFF1E040000E2FBFFFFBB
:104700003E040000F0B55F4656464D464446F0B4C0
:104710000D1C041C8046E80F814618030F03000B94
:104720003F0B83B084461B48009749005E00DF0FB3
:10473000490D9246760DBB4681420CD01548864203
:1047400010D00120B14215D003B03CBC9046994630
:10475000A246AB46F0BD009F01202743F4D10D488F
:104760008642EED1604602430120002AECD10120AE
:10477000B142E9D1009B6345E6D1D045E4D1D945AA
:1047800006D00029E0D11C43201C441EA041DBE7D9
:104790000020D9E7FF070000F0B55F4656464D46BA
:1047A0004446F0B4CD0FDE0FAC461D032D0BB146D1
:1047B000374E0F034C00AB465D0080463F0B640D47
:1047C00092466D0DB44232D0314EB54235D0002CF8
:1047D0000ED1384341424141081C002D0BD0002925
:1047E00019D1CC452DD0654668420123184318E005
:1047F000002DF6D1281C59460A4353425341002844
:1048000006D1002BEDD0634658420123184308E03F
:104810000020002B05D14A4650425041404201231E
:1048200018433CBC90469946A246AB46F0BD3E1CA0
:104830000643C9D002204042F3E75E461643C6D085
:10484000F8E7AC4207DC0BDA614648424841404297
:1048500001231843E5E76646704201231843E0E769
:104860005F450AD80ED000205F45DAD2654668421F
:104870006841404201231843D3E762465042012376
:104880001843CEE7D045F8D80020D045EED3C8E78E
:10489000FF070000F0B556464D4644465F46F0B46B
:1048A0000D1C83B0041C0190E80F814618030F0310
:1048B000000B3F0B84463548009749005E00DF0F30
:1048C000490D9246760DB846814234D02F48864233
:1048D00036D0002918D0002E1FD1341C67463A4329
:1048E00053425341002C1FD00020002B05D14246DB
:1048F0005042504140420123184303B03CBC904613
:104900009946A246AB46F0BD009804436042604120
:10491000041C002EE2D00028E9D1C14515D04F4635
:10492000784201231843E8E7002BF6D04B46584263
:1049300001231843E1E7009F02202743DDD1C5E7AB
:10494000674602201743D8D1C3E7B14204DD4A4687
:10495000504201231843D0E7B14207DB009860457D
:10496000E4D80AD0009F00206745C6D24F4678425F
:104970007841404201231843BFE7019A5245D5D8F8
:10498000019A00205245F1D3B7E7C046FF07000067
:10499000F0B5564644465F464D46F0B41F1C0B0327
:1049A0001B0B9A464B0087B0041C80465B0DC80F5A
:1049B000161C02938146002B68D0694B02999942DC
:1049C00032D08022534652031A43D200630F1A4357
:1049D0009246644AE000891880460291002400252E
:1049E0003B031B0B9B467800FB0F321C400D0393CF
:1049F00000D175E05A4B984269D080225946520343
:104A00000A43730FD2001A43564B9346C018F20064
:104A1000002303994E4671401C430F2C00D9A9E096
:104A2000514EA4003459A74653461C4300D087E09A
:104A30000025AA46A84608240225D1E74946022DAA
:104A40006CD0032D00D117E2012D00D058E10D40AC
:104A5000EDB20024A9460023A04600200021250332
:104A60000A0D1C052D0B1205404B2A43134023430E
:104A70005B004C465B08E207191C4046114307B037
:104A80003CBC90469946A246AB46F0BD53462343F4
:104A900050D05346002B00D184E1504600F010FE68
:104AA000031E272B00DD76E128210D1A211C083B6F
:104AB0005246E9409A400D1C1543221C9A40AA46D2
:104AC00090462B4B00241B1A0293002588E75B4677
:104AD0001E430323002E9CD1B3460022022398E7F5
:104AE0005B46334321D05846002800D14EE100F008
:104AF000E7FD272800DD42E128210F1A021C311CA6
:104B0000083A5B46F94093400F1C1F43331C934007
:104B1000BB461A1C164B181A00237AE701230B40D8
:104B200000249946A0460E4B97E70027BB4600227B
:104B300001236EE7002104248A46884601254FE7B9
:104B40000C2403254CE700258024A9462403A8460D
:104B5000034B82E7DA46904603991D1C6FE7C04677
:104B6000FF07000001FCFFFF907B0000FFFF0F80AC
:104B70000DFCFFFF029F160C381804904046070CEE
:104B80000004000C1204120C031C5343041C3D1CB3
:104B90007443554398463B1C73436419A4464446EA
:104BA0000293230C63449D4204D9029D8024640235
:104BB0002D1902951D0C039545462C041B04240C4D
:104BC0001C1905945C46230C051C58432404240C32
:104BD0008446381C604365435F438146CC44280CBF
:104BE0006044BB46814502D980277F02BB442D0427
:104BF000070C2D0C000440195546BC462F04E34415
:104C00008446280C3D0C2F1C5743B8462F1C774375
:104C10004243B94647463F0C9144BA46D1444643C5
:104C20004A4502D980225202B6184F463A0CB618AD
:104C30003A0447463F043F0CB8462F1C67435D4388
:104C40004443584365190190380C2D184244B84626
:104C5000AC4204D9019880235B02C0180190039CE8
:104C6000029F201C6044C0196045A441474664422D
:104C7000A4462B043C049946240C4C44A046D8443A
:104C80008018C246E24490429241574652429146B1
:104C9000F219E245BF417F424B46BC46D845BF4171
:104CA000D4187F4263461F432D0C7F19B2429241B4
:104CB0004C45AD4152426D421543019E7D19AB19E1
:104CC000E20D5B02059F134342023A439A46531E8C
:104CD0009A41C30D101C184364022043804650467D
:104CE000C0010DD5454601225646049C6B082A405A
:104CF0001A43F30701341A43760804949046B246E7
:104D0000049E634FF319002B61DD404640070BD032
:104D10000F2244462240042A06D04246043242452D
:104D200080414042824490465546ED0107D5594B9B
:104D30005646049F80201E40C000B2463B18564A8B
:104D4000934200DDEAE644465546E2086807104310
:104D500001226C025B050A408046240B5B0D9146E4
:104D60007BE6DA4690461D1C69E6802424035746FC
:104D700027421CD13C432403240B484B6DE6031C03
:104D8000283B311C99408B460022C3E6301C00F0C2
:104D900097FC2030ADE6283B211C994000228A4632
:104DA00090468EE6201C00F08BFC203078E65846BA
:104DB000204207D1044303992403240B89469046DB
:104DC000364B4AE63C432403240B344B45E6344B34
:104DD000049E9B1B382B06DD01230B4000249946C3
:104DE000A046002339E61F2B25DC049C2D4D4646AA
:104DF0006019524644468640DC4082405746301C8B
:104E00002243DF40441EA04102433B1C540709D00B
:104E10000F201040042805D0101D904292415242AC
:104E20009B18021C1D021AD501230B400024994631
:104E3000A046012311E61C48049C5546001BC540B2
:104E4000281C202B16D0194E5746A21997403A1C01
:104E500043461A43531E9A4102430023D6E758079C
:104E60005B02D2081C0B01230B401043994680467D
:104E70000023F2E50022EBE78024240350460123BF
:104E8000044319402403240B8946044BE5E5C0463E
:104E9000FF030000FFFFFFFEFE070000FF0700000A
:104EA00002FCFFFF1E040000E2FBFFFF3E040000C7
:104EB000F8B55F46564644464D46F0B40C034D00E7
:104EC000CF0F610A440F2143C4001803DE0F804650
:104ED000B44646465800760A530F3343D600C94AB3
:104EE0006D0DBA46400DB346904200D1EBE06246EC
:104EF000012672409446674500D1A1E02F1A002F89
:104F000000DC08E100283BD15846184300D0E8E017
:104F1000600709D00F232340042B05D0231DA34293
:104F2000A441644209191C1C0A0200D479E0B54B63
:104F30006A1C9A4200D109E1B34BE40819404807C2
:104F4000044349025205012750460B0B520D0740FE
:104F5000002000211B03201C1C0B0B0D1B05AB4D5F
:104F60002343520552081D4015436D006D08FF078D
:104F7000291C39433CBC90469946A246AB46F8BD35
:104F8000A0488542C4D0802000040343382F00DDB0
:104F9000F0E01F2F00DD24E12020C01B1A1C5E461C
:104FA0008240FE40324394465A468240101C421EC4
:104FB0009041FB40624602431F1CA21A9442A44146
:104FC0006442C91B091B141C0A02A1D549024F0ADD
:104FD000002F00D1C9E0381C00F072FB021C083A17
:104FE0001F2A00DDBCE02821231C091A9740CB4072
:104FF0001F439440954200DDAEE0551B691C1F29FC
:1050000000DDDDE01F22551B3B1C221CAB40CA40CB
:10501000AC40651EAC411343CF401C43391C0025F6
:1050200076E74807E4086A0501275646C908520D85
:1050300037400443734B9D4249D009030B0B87E76C
:105040002A1A9446002A00DC9BE0002855D06D48BF
:10505000854200D15CE78020000403436046382885
:1050600000DD09E11F2800DD50E162462020801AA2
:105070001E1C8640B1465E46D6404A4632435E46D6
:1050800086409046301C421E904142460243604694
:10509000C3401219A242A441644259180919141CB0
:1050A000080200D434E7574B01359D4200D142E15C
:1050B000554B60081940012323401C1C0443CB07B7
:1050C0001C43490824E71E4300D014E70FE70B1CDC
:1050D000234300D1CFE180231B030B431B031B0B96
:1050E00036E7013F002F66D15E46A21B9442A441E1
:1050F0006442C91A091B141C66E75846184300D1BC
:1051000006E701267642B4446046002800D0CAE093
:105110005E463219BEE7002F7AD1681C4005400D6B
:10512000012800DCE3E05A46A21A9442BF41C81AA3
:105130007F42C71B3E0200D492E05846041BA345A1
:105140009241591A52428F1AE24641E753460127CB
:105150001F4000240023FBE62B49AD1A3940D7E657
:10516000271C28388740002444E7201C00F0A8FAB8
:10517000203033E75A461A43531E9A41D2B20027D1
:105180001BE7002A00D0E1E0681C4605760D012EE1
:1051900000DC91E01B4DA84200D1F7E05E463219D9
:1051A000A242A441644259180919CC075208144379
:1051B0004908051CACE61348854200D0E6E6A7E6A0
:1051C0002B1C1F3B3E1CDE40331C202970D03F228D
:1051D000551BAF403C43601E84411C430021002509
:1051E00096E6381C20381E1CC640301C202F61D08B
:1051F0004022D71BBB405A461A43531E9A410243D2
:105200000027DAE6FF070000FFFF7FFFFFFF0F80A8
:10521000002D38D0B94DA84200D192E080252D0450
:105220007F422943382F00DDAAE01F2F00DD2CE14B
:105230002025ED1B0E1CAE40B046261CFE4042460B
:10524000AC401643651EAC413443F9405A46141B2A
:10525000A34592415B1A5242991A051CE246B3E6F5
:10526000131C3B43141C002B00D0B1E60027002286
:10527000002500210024DDE65A461A43531E9A41B8
:10528000D2B2002305E70D1C25435AD0FF43002F5F
:1052900053D15A46141BA3459241591A5242891AB6
:1052A000051CE24690E69548854200D0D6E62FE6FA
:1052B00000278FE700239EE7081C2043002D00D025
:1052C000C3E0002800D1F6E05846184300D11FE69D
:1052D00058460219A242A441644259180919141CE3
:1052E0000A0200D414E6864B0125194010E6081C7A
:1052F0002043002D3AD1002800D089E059461943B7
:1053000000D1BFE0191C5C46E24601E66046203849
:105310001A1CC2406646101C202E00D1B0E040226C
:10532000921B93405A461A43531E9A41024300234C
:10533000AFE6724D00272A1C9BE7704DA84200D0B3
:1053400070E7191C5C46051CE246E1E5002D20D102
:105350000D1C254375D0D543002D6FD15C445C45B1
:105360009241591852428918051C99E6002835D1F6
:1053700059461943DDD0191C5C46E2465F4DC7E52E
:105380000C43611E8C41E4B200215FE7051C021C46
:105390006FE75A4DA84254D055428022160431433B
:1053A000382D00DD81E01F2D00DD91E02022561B0D
:1053B0000A1CB446B240261CEE4032439046624678
:1053C0009440661EB44142461443E9405C445C4547
:1053D0009241CB1852429918051C61E65846184371
:1053E0004CD04807E40804438020C9080003014268
:1053F00008D0DD08054205D15946CA085C071443A8
:10540000291CE246630FC9001943E4003B4D7FE5C8
:105410005846184300D17BE55E46A71BBC4292412B
:10542000C81A5242801A06024CD55846041BA3459E
:105430009241591A5242891AE24669E52F4A90422E
:10544000AED1191C5C46051C62E5002836D05846D2
:10545000184313D080254807E408C9082D030443E6
:105460002942CFD0D8082842CCD15D46EA085C0753
:105470001443011CC6E70023002469E51F4D47E5DE
:1054800000234FE700270022F3E63D1C203D0E1CC1
:10549000EE40351C202F2DD04026F71BB9400C4381
:1054A000611E8C412C430021D0E60C43611E8C41CF
:1054B000E4B200218AE7191C5C4629E5191C5C4608
:1054C0000E4D25E5031C3B43DCD0011C3C1C1FE5B5
:1054D0002026764276190A1CF2409046202D0BD0E9
:1054E0004026751BA9400C43611E8C4145462C4348
:1054F00000216BE70021D2E70021F4E7FF0700005D
:10550000FFFF7FFF43001B0E5A1C4102D2B270B551
:105510004C0AC50F012A17DDE02292006407090B2F
:105520009818002200231E0D221C34050C431B4931
:10553000400540082140014349004908ED070B1C84
:105540002B43101C191C70BD002B15D1002C1CD036
:10555000201C00F0B5F80A281ADC0B21091A231CBC
:10556000CB40191C031C15339C400D4B0903181A22
:105570004005090B400DD4E7002C03D06407090B4C
:105580000848CEE707480021CBE700200021C8E704
:10559000011C0B398C40211C0024E6E7FFFF0F8023
:1055A00089030000FF070000F0B54B000D03420F18
:1055B0005B0D6D0A15435A1C5205CC0FC600520DE7
:1055C000012A27DD394FDA19FE2A1ADC002A35DDD7
:1055D0008001ED00431E98412843760F3043430776
:1055E00004D00F230340042B00D004308021C904D1
:1055F000014027D00132FF2A1DD083015B0AD1B2BE
:1056000001E0FF2100235802C905400AE4070843CE
:105610002043F0BD002B06D1354311D100210020DD
:1056200043025B0AEFE72E43EBD08020ED008004BD
:105630002843FF22D3E7FF210023E4E717320DDAE6
:1056400005200022C008D1B2FF2AE9D10028D9D014
:105650008023DB0303435B025B0AD4E78022144907
:1056600012041543C91A1F290DDC124A371C9B1856
:10567000281C9F4098403B1C5A1E93411843CE4023
:1056800030430022ABE70C4F2A1CFF1AFA40171CCC
:10569000202909D0094A98188540281C3043461E05
:1056A000B041384300229AE70020F7E780FCFFFF73
:1056B0009E03000082FCFFFF7E030000A2FCFFFFB0
:1056C0001C2101231B04984201D3000C10391B0A32
:1056D000984201D3000A08391B09984201D30009F6
:1056E000043902A2105C40187047C046040302024D
:1056F00001010101000000000000000038B5051C98
:1057000005480C1C131C002804D00220291C221C54
:1057100000E000BF38BDC04600000000014B186823
:105720007047C04630010010084B10B5041C002B18
:1057300002D0002100E000BF054B1868836A002BEF
:1057400000D09847201CFCF7D7FCC04600000000A2
:10575000347C000070B5051C0C1E01D1002049E00E
:10576000002804D08269002A01D100F073F9224B8D
:105770009C4201D16C6808E0204B9C4201D1AC688E
:1057800003E01F4B9C4200D1EC680C22A35E002B6F
:10579000E4D0281C211C00F0C9F8236B061C002B48
:1057A00006D0281C216A9847002801DA0126764293
:1057B000A3891A0603D5281C216900F06BFB616BD5
:1057C000002908D0231C4433994202D0281C00F041
:1057D00061FB00236363A16C002904D0281C00F046
:1057E00059FB0023A36400F0A5F90023A38100F076
:1057F000A2F9301C70BDC046D07B0000F07B0000D9
:10580000107C000008B5034B011C1868FFF7A2FFCD
:1058100008BDC04630010010F7B58B89051C0C1C73
:1058200019075ED46268002A02DC276C002F1ADD9B
:10583000E76A002F17D000222E682A6080225201CA
:105840001A4001D0626D15E0281C216A0123B84777
:10585000021C411C0ED12B68002B0BD01D2B01D03C
:10586000162B02D12E6000205EE0A38940210B435D
:10587000A38159E0A3895F0706D56168636B521A5B
:10588000002B01D0276CD21B281C216A0023E76A59
:10589000B847A289411C06D12B68002B03D01D2BD1
:1058A00001D0162B19D10023636023692360D7042C
:1058B00005D5411C02D12A68002A00D16065616BC0
:1058C0002E600029CFD0231C4433994202D0281CDB
:1058D00000F0E0FA0020606326E040231A43A28132
:1058E00022E02669002EBED027680022BF1B019748
:1058F0002660990700D16269A260019F002FB2DD86
:10590000281C216A321C019BA76AB847002806DCC4
:10591000A389402213430120A381404204E0019F58
:1059200036183F1A0197E8E7FEBD00000A6938B54E
:10593000051C0C1C002A01D100201CE0002804D00A
:105940008369002B01D100F085F80B4B9C4201D1FB
:105950006C6808E0094B9C4201D1AC6803E0084B3D
:105960009C4200D1EC680C22A35E002BE4D0281CE2
:10597000211CFFF751FF38BDD07B0000F07B0000F9
:10598000107C000008B5011E05D1054B05491868BB
:1059900000F0B8F903E0044B1868FFF7C7FF08BD33
:1059A000347C00002D59000030010010F8B5041CB3
:1059B000071C4834002C12D0A5686668013E0CD440
:1059C000AB89012B07D90E22AB5E013303D0381C03
:1059D000291CFFF7ABFF6835F0E72468EAE7F8BD5C
:1059E000002310B5041C036043608360818143661B
:1059F000C281036143618361191C08225C3000F09D
:105A000041FA054B24626362044BA362044BE362D8
:105A1000044B236310BDC046CD610000F961000056
:105A2000316200005D62000070B54B1E68255D4369
:105A30000E1C291C743100F075FA041E08D00021D8
:105A4000016046602A1C0C30A060683200F01AFA2F
:105A5000201C70BD836913B5041C002B27D18364FF
:105A6000C3640365124B134A1B688262984201D1DA
:105A700001238361201C00F01FF86060201C00F0EF
:105A80001BF8A060201C00F017F80421E060002241
:105A90006068FFF7A5FFA06809210122FFF7A0FFBA
:105AA000E06812210222FFF79BFF0123A36113BDCF
:105AB000347C0000AD590000F8B51D4B071C1E6872
:105AC000B269002A02D1301CFFF7C4FF4836B4681F
:105AD0007368013B05D40C22A55E002D10D06834FC
